S010000050726F6A656374322E737265630B
S11300000C942A000C9435010C943C000C943C0094
S11300100C943C000C943C000C943C000C943C006C
S11300200C943C000C943C000C943C000C943C005C
S11300300C943C000C943C000C943C000C943C004C
S11300400C943C000C943C000C943C000C943C003C
S11300500C943C0011241FBECFE5D8E0DEBFCDBF19
S113006020E0A0E6B0E001C01D92A936B207E1F796
S11300700E94A8010C9427040C94000010926600BE
S113008085E08093630060E080E00E94890161E084
S113009080E00E94890162E080E00E94890160E0C2
S11300A081E00E94890161E081E00E94890162E0AF
S11300B081E00E94890162E083E00E947A010E944B
S11300C06B03809166000895109266008091610030
S11300D08130B9F062E080E00E94910160E081E04B
S11300E00E94910181E0809363000E947C0362E09E
S11300F080E00E94990160E081E00E949901809172
S113010066000895CF93DF9310926600809161009A
S1130110813009F160E081E00E94910181E08093E7
S11301206300C0E0D0E00AC061E080E00E94A10169
S113013081E0809363000E94B4032196CA30D10504
S11301409CF361E080E00E94990160E081E00E94FC
S1130150990180916600DF91CF9108951092660015
S1130160809161008130B9F085E08093630062E0A2
S113017081E00E94910160E080E00E9491010E9470
S11301807C0362E081E00E94990160E080E00E94CB
S11301909901809166000895CF93DF9310926600D1
S11301A0809161008130F9F062E081E00E94910168
S11301B010926300C0E0D0E009C061E080E00E94DA
S11301C0A101109263000E94B4032196CA30D105A4
S11301D0A4F361E080E00E94990162E081E00E9462
S11301E0990180916600DF91CF910895CF93DF93B9
S11301F01092660060E080E00E94990160E081E076
S11302000E94990162E080E00E94990162E081E02D
S11302100E949901C0E0D0E00BC061E080E00E9440
S1130220A10161E081E00E94A1010E94B403219632
S1130230CA30D10594F361E080E00E94990161E045
S113024081E00E94990180916600DF91CF91089529
S1130250109266000E9464000E9482000E94AE0018
S11302600E94CC008091660008951F920F920FB6F1
S11302700F9211242F933F934F935F936F937F9328
S11302808F939F93AF93BF93EF93FF9344E650E014
S113029062E083E00E9482010E94EB0344E650E0A6
S11302A062E083E00E94820180916400811111C0A8
S11302B080916300853069F0882359F0813049F4D6
S11302C00E94F6000E94AE000E94CC0081E0809360
S11302D06100FF91EF91BF91AF919F918F917F91B9
S11302E06F915F914F913F912F910F900FBE0F909F
S11302F01F9018951092670040E00E94B20180910F
S113030067000895109267000E94C20280916700FE
S113031008951092620041E00E94B201809162004F
S113032008951092620041E00E943A0280916200B6
S113033008951092620040E00E943A0280916200A7
S11303400895109262000E942B0380916200089528
S11303500E943E0085E0809363000E942801109271
S11303606100F8CF10926800411140C0813099F0CB
S113037028F08230E9F0833041F134C02AB381E0BF
S113038090E002C0880F991F6A95E2F78095822356
S11303908ABB8ABB6CC027B381E090E002C0880F9F
S11303A0991F6A95E2F78095822387BB87BB5FC05C
S11303B024B381E090E002C0880F991F6A95E2F7A8
S11303C08095822384BB84BB52C021B381E090E03A
S11303D002C0880F991F6A95E2F78095822381BB3A
S11303E081BB45C081E08093680041C04130E1F5A4
S11303F0813091F028F08230D9F0833029F130C077
S11304002AB381E090E002C0880F991F6A95E2F751
S1130410822B8ABB8ABB2BC027B381E090E002C049
S1130420880F991F6A95E2F7822B87BB87BB1FC091
S113043024B381E090E002C0880F991F6A95E2F727
S1130440822B84BB84BB13C021B381E090E002C043
S1130450880F991F6A95E2F7822B81BB81BB07C085
S113046081E08093680003C081E0809368008091FC
S11304706800089510926800411140C0813099F0DD
S113048028F08230E9F0833041F134C02BB381E0AD
S113049090E002C0880F991F6A95E2F78095822345
S11304A08BBB8BBB6CC028B381E090E002C0880F8B
S11304B0991F6A95E2F78095822388BB88BB5FC049
S11304C025B381E090E002C0880F991F6A95E2F796
S11304D08095822385BB85BB52C022B381E090E026
S11304E002C0880F991F6A95E2F78095822382BB28
S11304F082BB45C081E08093680041C04130E1F592
S1130500813091F028F08230D9F0833029F130C065
S11305102BB381E090E002C0880F991F6A95E2F73F
S1130520822B8BBB8BBB2BC028B381E090E002C035
S1130530880F991F6A95E2F7822B88BB88BB1FC07E
S113054025B381E090E002C0880F991F6A95E2F715
S1130550822B85BB85BB13C022B381E090E002C02F
S1130560880F991F6A95E2F7822B82BB82BB07C072
S113057081E08093680003C081E0809368008091EB
S113058068000895109268008130E9F030F08230FC
S113059081F1833009F443C058C079B381E090E01D
S11305A09C01062E02C0220F331F0A94E2F7872F04
S11305B090E08223932302C0959587956A95E2F78C
S11305C0FA01808345C076B381E090E09C01062E59
S11305D002C0220F331F0A94E2F7872F90E0822390
S11305E0932302C0959587956A95E2F7FA01808373
S11305F02FC073B381E090E09C01062E02C0220F4D
S1130600331F0A94E2F7872F90E08223932302C0DA
S1130610959587956A95E2F7FA01808319C070B3BE
S113062081E090E09C01062E02C0220F331F0A9441
S1130630E2F7872F90E08223932302C09595879554
S11306406A95E2F7FA01808303C081E08093680031
S113065080916800089510926800813091F028F02C
S11306608230D9F0833029F130C02BB381E090E09F
S113067002C0880F991F6A95E2F782278BBB8BBB58
S113068027C028B381E090E002C0880F991F6A95C3
S1130690E2F7822788BB88BB1BC025B381E090E0CA
S11306A002C0880F991F6A95E2F7822785BB85BB34
S11306B00FC022B381E090E002C0880F991F6A95B1
S11306C0E2F7822782BB82BB03C081E0809368008B
S11306D0809168000895109265008FB780688FBF7D
S11306E085B7816085BF85B7826085BF8BB780641D
S11306F08BBF8091650008951092600083B78F7B53
S113070083BF83BF83B7877F83BF83BF83ED82BFEC
S113071083B7816083BF83BF83B7826083BF83BF96
S113072083B78B7F83BF83BF40E050E0BA0111C021
S113073088B7817088BF8823D9F388B7816088BF60
S113074088BF4F5F5F4F6F4F7F4F80916100813053
S113075031F0423381E058076105710549F783EDB3
S113076082BF8091600008951092600083B78F7BF0
S113077083BF83BF83B7877F83BF83BF8CED82BF73
S113078083B78E7F83BF83BF83B7826083BF83BFFA
S113079083B78B7F83BF83BF40E050E0BA0111C0B1
S11307A088B7817088BF8823D9F388B7816088BFF0
S11307B088BF4F5F5F4F6F4F7F4F809161008130E3
S11307C029F0453F51056105710551F78CED82BF54
S11307D08091600008951092600085B58F7B85BD7F
S11307E085BD85B5877F85BD85BD8EEE84BD85B508
S11307F08B7F85BD85BD85B5826085BD85BD85B58D
S11308008E7F85BD85BD40E050E0BA0116C088B733
S1130810807490E0082E892F000C881F990B000C1F
S1130820881F991F88BF892B91F388B7806488BF7C
S113083088BF4F5F5F4F6F4F7F4F4B375105610547
S1130840710529F78EEE84BD809160000895F894B7
S1050850FFCFD4
S9030000FC
